:020000040800F2
:10400000FFFF0120B1E500081185000813850008B5
:104010006D860008B1860008F586000800000000E3
:10402000000000000000000000000000BD6D00085E
:104030003987000800000000516E00080D85000857
:10404000FDE50008FDE50008FDE50008FDE50008C8
:10405000FDE50008FDE50008A3830008B383000820
:10406000C3830008D3830008E1830008D11A010844
:10407000FDE50008F51A0108FDE50008FDE500086A
:104080003B870008FDE50008FDE50008FDE50008A8
:10409000FDE50008FDE50008FDE50008F9830008DE
:1040A000FDE50008FDE50008FDE50008FDE5000868
:1040B000FDE50008FDE50008FDE50008C51A01085A
:1040C000B91A0108FDE50008FDE50008FDE5000856
:1040D000FDE50008FDE50008FDE50008E92401080C
:1040E00071840008FDE50008FDE50008FDE5000815
:1040F000FDE50008C5260108FDE50008FDE500080E
:10410000FDE50008FDE50008FDE50008FDE5000807
:10411000FDE50008FDE50008FDE50008F1360108B1
:1041200099690108FDE50008FDE50008FDE50008C6
:10413000FDE50008FDE50008FDE50008FDE50008D7
:10414000FDE50008FDE50008FDE50008F9F20008BE
:104150002D690108FDE50008A5230108A123010838
:10416000E91A0108DD1A0108FDE50008FDE500086F
:10417000FDE50008FDE50008FDE50008FDE5000897
:08418000FDE50008FDE5000863
:1041880081F0004102E000BF83F0004330B54FEA00
:1041980041044FEA430594EA050F08BF90EA020F6D
:1041A8001FBF54EA000C55EA020C7FEA645C7FEA00
:1041B800655C00F0E2804FEA5454D4EB5555B8BF23
:1041C8006D420CDD2C4480EA020281EA030382EA94
:1041D800000083EA010180EA020281EA0303362D26
:1041E80088BF30BD11F0004F4FEA01314FF4801CF9
:1041F8004CEA113102D0404261EB410113F0004F0B
:104208004FEA03334CEA133302D0524263EB4303C1
:1042180094EA050F00F0A780A4F10104D5F1200E5F
:104228000DDB02FA0EFC22FA05F2801841F10001BA
:1042380003FA0EF2801843FA05F359410EE0A5F18E
:1042480020050EF1200E012A03FA0EFC28BF4CF0BF
:10425800020C43FA05F3C01851EBE37101F0004575
:1042680007D54FF0000EDCF1000C7EEB00006EEB82
:104278000101B1F5801F1BD3B1F5001F0CD349080C
:104288005FEA30004FEA3C0C04F101044FEA445263
:1042980012F5800F80F09A80BCF1004F08BF5FEAEA
:1042A800500C50F1000041EB045141EA050130BDCA
:1042B8005FEA4C0C404141EB010111F4801FA4F16D
:1042C8000104E9D191F0000F04BF01460020B1FAC2
:1042D80081F308BF2033A3F10B03B3F120020CDAFA
:1042E8000C3208DD02F1140CC2F10C0201FA0CF0D8
:1042F80021FA02F10CE002F11402D8BFC2F1200C3D
:1043080001FA02F120FA0CFCDCBF41EA0C019040F2
:10431800E41AA2BF01EB0451294330BD6FEA04043B
:104328001F3C1CDA0C340EDC04F11404C4F1200226
:1043380020FA04F001FA02F340EA030021FA04F338
:1043480045EA030130BDC4F10C04C4F1200220FA8F
:1043580002F001FA04F340EA0300294630BD21FACD
:1043680004F0294630BD94F0000F83F4801306BF93
:1043780081F480110134013D4EE77FEA645C18BF87
:104388007FEA655C29D094EA050F08BF90EA020F1E
:1043980005D054EA000C04BF1946104630BD91EA16
:1043A800030F1EBF0021002030BD5FEA545C05D119
:1043B8004000494128BF41F0004130BD14F5800458
:1043C8003CBF01F5801130BD01F0004545F0FE41CC
:1043D80041F470014FF0000030BD7FEA645C1ABF01
:1043E800194610467FEA655C1CBF0B46024650EA38
:1043F800013406BF52EA033591EA030F41F4002164
:1044080030BD00BF90F0000F04BF0021704730B5E9
:104418004FF4806404F132044FF000054FF00001BE
:1044280050E700BF90F0000F04BF0021704730B57F
:104438004FF4806404F1320410F0004548BF404254
:104448004FF000013EE700BF42004FEAE2014FEAA9
:1044580031014FEA02701FBF12F07F4393F07F4F84
:1044680081F06051704792F0000F14BF93F07F4FB6
:10447800704730B54FF4607401F0004521F00041F9
:1044880020E700BF50EA010208BF704730B54FF07F
:1044980000050AE050EA010208BF704730B511F084
:1044A800004502D5404261EB41014FF4806404F1BC
:1044B80032045FEA915C3FF4DCAE4FF003025FEA3E
:1044C800DC0C18BF03325FEADC0C18BF033202EBC6
:1044D800DC02C2F1200300FA03FC20FA02F001FA20
:1044E80003FE40EA0E0021FA02F11444C1E600BFBF
:1044F80070B54FF0FF0C4CF4E06C1CEA11541DBF72
:104508001CEA135594EA0C0F95EA0C0F00F0DEF83C
:104518002C4481EA030621EA4C5123EA4C5350EA21
:10452800013518BF52EA033541F4801143F4801372
:1045380038D0A0FB02CE4FF00005E1FB02E506F003
:104548000042E0FB03E54FF00006E1FB03569CF058
:10455800000F18BF4EF0010EA4F1FF04B6F5007F5E
:1045680064F5407404D25FEA4E0E6D4146EB0606D0
:1045780042EAC62141EA55514FEAC52040EA5E5059
:104588004FEACE2EB4F1FD0C88BFBCF5E06F1ED803
:10459800BEF1004F08BF5FEA500E50F1000041EB3A
:1045A800045170BD06F0004646EA010140EA0200E7
:1045B80081EA0301B4EB5C04C2BFD4EB0C0541EA09
:1045C800045170BD41F480114FF0000E013C00F31E
:1045D800AB8014F1360FDEBF002001F0004170BD42
:1045E800C4F10004203C35DA0C341BDC04F114045B
:1045F800C4F1200500FA05F320FA04F001FA05F2E7
:1046080040EA020001F0004221F0004110EBD370B3
:1046180021FA04F642EB06015EEA430E08BF20EADF
:10462800D37070BDC4F10C04C4F1200500FA04F382
:1046380020FA05F001FA04F240EA020001F0004114
:1046480010EBD37041F100015EEA430E08BF20EA87
:10465800D37070BDC4F1200500FA05F24EEA020ECF
:1046680020FA04F301FA05F243EA020321FA04F0FE
:1046780001F0004121FA04F220EA020000EBD370B5
:104688005EEA430E08BF20EAD37070BD94F0000FB5
:104698000FD101F00046400041EB010111F4801FE9
:1046A80008BF013CF7D041EA060195F0000F18BF9A
:1046B800704703F00046520043EB030313F4801FD6
:1046C80008BF013DF7D043EA0603704794EA0C0F90
:1046D8000CEA135518BF95EA0C0F0CD050EA4106A6
:1046E80018BF52EA4306D1D181EA030101F0004123
:1046F8004FF0000070BD50EA410606BF104619464B
:1047080052EA430619D094EA0C0F02D150EA013656
:1047180013D195EA0C0F05D152EA03361CBF104697
:1047280019460AD181EA030101F0004141F0FE4136
:1047380041F470014FF0000070BD41F0FE4141F4BA
:10474800780170BD70B54FF0FF0C4CF4E06C1CEABA
:1047580011541DBF1CEA135594EA0C0F95EA0C0F6F
:1047680000F0A7F8A4EB050481EA030E52EA03352A
:104778004FEA013100F088804FEA03334FF080554B
:1047880045EA131343EA12634FEA022245EA111578
:1047980045EA10654FEA00260EF000419D4208BF29
:1047A800964244F1FD0404F5407402D25B084FEAD6
:1047B8003202B61A65EB03055B084FEA32024FF482
:1047C80080104FF4002CB6EB020E75EB030E22BFDF
:1047D800B61A754640EA0C005B084FEA3202B6EB9F
:1047E800020E75EB030E22BFB61A754640EA5C004E
:1047F8005B084FEA3202B6EB020E75EB030E22BFDE
:10480800B61A754640EA9C005B084FEA3202B6EBDE
:10481800020E75EB030E22BFB61A754640EADC009D
:1048280055EA060E18D04FEA051545EA16754FEAFF
:1048380006164FEAC30343EA52734FEAC2025FEA1D
:104848001C1CC0D111F4801F0BD141EA00014FF0AC
:1048580000004FF0004CB6E711F4801F04BF01437D
:104868000020B4F1FD0C88BFBCF5E06F3FF6AFAE99
:10487800B5EB030C04BFB6EB020C5FEA500C50F129
:10488800000041EB045170BD0EF0004E4EEA1131AC
:1048980014EB5C04C2BFD4EB0C0541EA045170BDB3
:1048A80041F480114FF0000E013C90E645EA060EF7
:1048B8008DE60CEA135594EA0C0F08BF95EA0C0F25
:1048C8003FF43BAF94EA0C0F0AD150EA01347FF46D
:1048D80034AF95EA0C0F7FF425AF104619462CE744
:1048E80095EA0C0F06D152EA03353FF4FDAE1046A7
:1048F800194622E750EA410618BF52EA43067FF4F8
:10490800C5AE50EA41047FF40DAF52EA43057FF487
:10491800EBAE12E74FF0FF3C06E000BF4FF0010C92
:1049280002E000BF4FF0010C4DF804CD4FEA410CF6
:104938007FEA6C5C4FEA430C18BF7FEA6C5C1BD0C3
:1049480001B050EA410C0CBF52EA430C91EA030F44
:1049580002BF90EA020F0020704710F1000F91EAA1
:10496800030F58BF994208BF90422CBFD8176FEA6F
:10497800E37040F0010070474FEA410C7FEA6C5C3D
:1049880002D150EA013C07D14FEA430C7FEA6C5C44
:10499800D6D152EA033CD3D05DF8040B704700BF70
:1049A8008446104662468C461946634600E000BFBE
:1049B80001B5FFF7B7FF002848BF10F1000F01BD90
:1049C8004DF808EDFFF7F4FF0CBF012000205DF85B
:1049D80008FB00BF4DF808EDFFF7EAFF34BF0120E0
:1049E80000205DF808FB00BF4DF808EDFFF7E0FF79
:1049F80094BF012000205DF808FB00BF4DF808EDCA
:104A0800FFF7CEFF94BF012000205DF808FB00BF30
:104A18004DF808EDFFF7C4FF34BF012000205DF812
:104A280008FB00BF4FEA4102B2F1E04324BFB3F5EF
:104A3800001CDCF1FE5C0DD901F0004C4FEAC0020D
:104A48004CEA5070B2F1004F40EB830008BF20F0F1
:104A58000100704711F0804F21D113F13872BCBFAB
:104A680001F00040704741F480114FEA5252C2F100
:104A78001802C2F1200C10FA0CF320FA02F018BF49
:104A880040F001004FEAC1234FEAD32303FA0CFC9C
:104A980040EA0C0023FA02F34FEA4303CCE77FEA2B
:104AA800625307D150EA01331EBF4FF0FE4040F475
:104AB8004000704701F0004040F0FE4040F4000024
:104AC800704700BF80F0004002E000BF81F0004165
:104AD80042001FBF5FEA410392EA030F7FEA226C9C
:104AE8007FEA236C6AD04FEA1262D2EB1363C1BF2C
:104AF800D218414048404140B8BF5B42192B88BF9B
:104B0800704710F0004F40F4000020F07F4018BFBD
:104B1800404211F0004F41F4000121F07F4118BFDD
:104B2800494292EA030F3FD0A2F1010241FA03FC85
:104B380010EB0C00C3F1200301FA03F100F000436D
:104B480002D5494260EB4000B0F5000F13D3B0F135
:104B5800807F06D340084FEA310102F10102FE2AA4
:104B680051D2B1F1004F40EBC25008BF20F0010014
:104B780040EA03007047490040EB000010F4000FC2
:104B8800A2F10102EDD1B0FA80FCACF1080CB2EB55
:104B98000C0200FA0CF0AABF00EBC25052421843B4
:104BA800BCBFD0401843704792F0000F81F4000159
:104BB80006BF80F400000132013BB5E74FEA41032C
:104BC8007FEA226C18BF7FEA236C21D092EA030F98
:104BD80004D092F0000F08BF0846704790EA010F12
:104BE8001CBF0020704712F07F4F04D1400028BF3F
:104BF80040F00040704712F100723CBF00F5000021
:104C0800704700F0004343F0FE4040F40000704756
:104C18007FEA226216BF08467FEA23630146420202
:104C280006BF5FEA412390EA010F40F48000704715
:104C38004FF0000304E000BF10F0004348BF4042BB
:104C48005FEA000C08BF704743F0964301464FF0F7
:104C580000001CE050EA010208BF70474FF0000353
:104C68000AE000BF50EA010208BF704711F0004394
:104C780002D5404261EB41015FEA010C02BF844664
:104C88000146002043F0B64308BFA3F18053A3F5C3
:104C98000003BCFA8CF2083AA3EBC25310DB01FA0A
:104CA80002FC634400FA02FCC2F12002BCF1004F8E
:104CB80020FA02F243EB020008BF20F0010070471F
:104CC80002F1200201FA02FCC2F1200250EA4C0073
:104CD80021FA02F243EB020008BF20EADC707047B9
:104CE80073B96AB9002908BF0028BCBF00204FF07B
:104CF8000041C4BF6FF000414FF0FF3000F03CB8F6
:104D080082B0EC462DE9005000F006F8DDF804E02A
:104D180002B00CBC704700BF2DE97043069E1446D4
:104D28001D468046894600F029F804FB01F300FB84
:104D38000533A4FB00451D44B8EB040469EB0505E5
:104D4800C6E90045BDE870832DE97043069E144608
:104D5800804689461D4600F05DF900FB05F504FB19
:104D68000153A0FB04451D44B8EB040469EB050599
:104D7800C6E90045BDE87083704700BF00292DE9EA
:104D8800F00FC0F29F800024002BC0F296801546D9
:104D980006460F46002B3ED18A4257D9B2FA82F313
:104DA8004BB1C3F1200201FA03F720FA02F29D4049
:104DB800174300FA03F6290CB7FBF1F2330C01FB99
:104DC800127CA8B243EA0C4700FB02F3BB4209D9A4
:104DD8007F1902F1FF3C80F00181BB4240F2FE8066
:104DE800023A2F44FF1AB7FBF1F3B6B201FB137175
:104DF80046EA014100FB03F0884208D9491903F14A
:104E0800FF3780F0ED80884240F2EA80023B43EAB7
:104E18000242002303E08B420AD900231A461046B7
:104E2800194614B1404261EB4101BDE8F00F7047EB
:104E3800B3FA83F8B8F1000F40F084808B4202D3B4
:104E4800824200F2DE8000230122E8E712B9012342
:104E5800B3FBF2F5B5FA85F2002A39D17F1B280C8D
:104E68001FFA85FC0123B7FBF0F1320C00FB117728
:104E780042EA07470CFB01F2BA4207D97F1901F150
:104E8800FF3802D2BA4200F2C1804146BF1AB7FBCE
:104E9800F0F2B6B200FB127046EA00400CFB02FCCE
:104EA800844507D9401902F1FF3702D2844500F240
:104EB800AB803A4642EA0142B1E7E443524263EB2F
:104EC800430364E7404261EB41014FF0FF345BE785
:104ED8009540C2F1200327FA03F1280C26FA03F3C0
:104EE8009740B1FBF0F81F433B0C00FB18111FFA69
:104EF80085FC43EA01410CFB08F38B4206FA02F6F3
:104F080008D9491908F1FF3279D28B4277D9A8F12B
:104F180002082944C91AB1FBF0F3BFB200FB131110
:104F280047EA01470CFB03F2BA4207D97F1903F19C
:104F3800FF3160D2BA425ED9023B2F44BF1A43EA1E
:104F4800084390E7C8F1200203FA08FC25FA02F3A7
:104F580043EA0C0C4FEA1C4921FA02F301FA08F75C
:104F680020FA02F2B3FBF9F1174309FB11333A0CAB
:104F78001FFA8CFB42EA03430BFB01FA9A4505FA38
:104F880008F008D913EB0C0301F1FF3235D29A452A
:104F980033D902396344CAEB0303B3FBF9F209FBC3
:104FA8001233BFB247EA03470BFB02F9B94508D9E8
:104FB80017EB0C0702F1FF331BD2B94519D9023A96
:104FC800674442EA0145A5FB0001C9EB07078F4288
:104FD8004FF000030AD305D02A4620E7624601E7CE
:104FE8003B4614E706FA08F68642F5D26A1E002305
:104FF80015E71A46E5E70B46A0E71146CBE79046CA
:1050080088E7434642460AE7023A53E702392F4403
:105018003CE700BF2DE9F00F144605460E46002B6D
:1050280043D18A4253D9B2FA82F757B1C7F1200661
:1050380020FA06F601FA07F302FA07F41E4300FA0B
:1050480007F5210CB6FBF1F22B0C01FB1267A0B29D
:1050580043EA074600FB02F3B34209D9361902F1C5
:10506800FF3780F0F680B34240F2F380023A2644DC
:10507800F61AB6FBF1F3ADB201FB136145EA014143
:1050880000FB03F0884208D9091903F1FF3680F0C4
:10509800E280884240F2DF80023B43EA024200237A
:1050A80010461946BDE8F00F70478B424AD8B3FA4C
:1050B80083F6002E4DD18B4202D3824200F2D68075
:1050C8000023012210461946BDE8F00F704712B9B7
:1050D8000124B4FBF2F4B4FA84F2002A7CD1091B4F
:1050E800260CA7B20123B1FBF6F02A0C06FB10111F
:1050F80042EA014107FB00F28A4207D9091900F187
:10510800FF3C02D28A4200F2C3806046891AB1FB92
:10511800F6F2ADB206FB121145EA014507FB02F7AC
:10512800AF4208D92C1902F1FF3180F09680A742CE
:1051380040F29380023A42EA004210461946BDE81E
:10514800F00F704700231A4610461946BDE8F00FC5
:105158007047C6F1200522FA05F4B3401C434FEA14
:10516800144821FA05F301FA06F720FA05F5B3FB0E
:10517800F8FC2F4308FB1C333D0C1FFA84FA45EA60
:1051880003430AFB0CF9994502FA06FB04D91B19DB
:105198000CF1FF326DD39446C9EB0303B3FBF8F56A
:1051A80008FB1533BFB247EA03470AFB05F8B845C1
:1051B80004D93F1905F1FF3361D31D4645EA0C4C6C
:1051C800ACFB0B23C8EB07079F424FF0000549D300
:1051D80045D062462B4663E79440C2F1200321FA8A
:1051E80003FC260C20FA03F301FA02F5BCFBF6F8DF
:1051F80043EA05010B0C06FB18CCA7B243EA0C4C9A
:1052080007FB08F3634500FA02F509D91CEB040C07
:1052180008F1FF323AD2634538D9A8F10208A4440C
:10522800C3EB0C0CBCFBF6F389B206FB13CC41EACA
:105238000C4107FB03F28A4207D9091903F1FF3031
:1052480022D28A4220D9023B2144891A43EA0843E0
:1052580049E73A460CE733461FE70A466BE7B04092
:105268009042B6D20CF1FF32002319E7334632469A
:1052780016E799458FD9ACF1020C23448CE7B84561
:105288009BD9023D274499E70346DEE79046C7E7E6
:10529800023821443AE700BF10F8012B11F8013B0E
:1052A800012A28BF9A42F7D0D01A704700F10803A4
:1052B80043604FF0FF32C3600361002382600360E4
:1052C800704700230361704743684B609A688A609F
:1052D8009A685160996008610368013303607047F8
:1052E80030B50C68631C01D1036907E000F10803BD
:1052F8005A681568A54201D81346F9E75A684A6002
:1053080091608B605960086103680133036030BDA8
:1053180042688168036991608268416851605A688F
:10532800824204BF82685A6000220261186801380C
:10533800186070472DE9F0410C68002C3CD04C688F
:1053480064684C6001F10806B44204BF74684C609C
:105358004C68E768034600204C6864684C60B442B7
:1053680004BFCC684C604C68E4681C6004F13405E8
:105378005D60256C9D601A73E56A1D61032A03D17F
:10538800A56A0DB102251D73A56C5D61656D9D61F2
:10539800D4F83080002518F805C0BCF1A50F01D15C
:1053A8000135F8E7AD08BC429D8300F1010003F127
:1053B8002003D1D1BDE8F0812046BDE8F08100008E
:1053C800064A13681968064B11B94FF0FF3203E01B
:1053D8001268D268D26852681A607047D8080020EC
:1053E8003809002010B50E4B1A6850600D4A126833
:1053F8009042044607D20C4A10681968BDE810406C
:105408000431FFF76DBF094A106819680431FFF7C6
:1054180067FF074B1A68944238BF1C6010BD00BF75
:10542800E80800204408002040090020D80800208F
:10543800380900202DE9F84F0A9E0C9D8A469346AC
:105448009946804628B96348634940F22D2208F0FE
:10545800B3FE052E05D961485F4940F22E2208F0B7
:10546800ABFE3DB94FEA8B0001F07AFB05460028F8
:1054780000F0AB80602001F073FB044678B14FEA7E
:105488008B0B05635A462846A52117F0B0FF236BFE
:10549800ABF1040B5B4423F00707002506E0284620
:1054A80001F0FCFB91E001350A2D08D062191AF8C9
:1054B800051082F834101AF80520002AF3D10025C7
:1054C800052E34BFB3464FF0050B04F1040A5046CD
:1054D80084F83D50C4F82CB0C4F848B0E564FFF730
:1054E800F0FE04F11800FFF7ECFECBF10602A26112
:1054F800A565246164622565656584F85C50384655
:1055080041464A4601F044FC0B9B206003B11C60F5
:1055180001F060FC324B334D1A68DFF8F480013239
:105528001A602F6817BB2C601B68012B26D108EB6B
:1055380007001437FFF7BAFE782FF8D1DFF8D490B8
:10554800294F4846FFF7B2FE3846FFF7AFFE274817
:10555800FFF7ACFE2648FFF7A9FE2648FFF7A6FE90
:10556800254BC3F80090254B1F6007E0244B1B68B0
:1055780023B92B68DB6AB34298BF2C60214A1368B1
:1055880001331360204A2364E36A1168012404FA92
:1055980003F001431420116000FB03805146FFF71C
:1055A80093FE01F039FC164B1B685BB12B68DB6A74
:1055B800B34207D2154B4FF080521A60BFF34F8F9A
:1055C800BFF36F8F2046BDE8F88F4FF0FF30BDE87E
:1055D800F88F00BFE9D50108D0D50108F4D5010836
:1055E80004090020E80800201C09002028080020E1
:1055F800C4080020F0080020D80800204009002036
:10560800E0080020300900203C08002004ED00E0FC
:1056180048080020080900201FB50024194B0193F1
:105628000094029403941848184996222346FFF7D9
:1056380001FF01281AD101F0BDF8012816D14FF059
:105648005F0383F31188BFF36F8FBFF34F8F104B46
:105658004FF0FF321A600F4B18600F4B1C600DF0B3
:10566800DFFF04B0BDE8104001F042BC40B90B4870
:105678000B4940F2516204B0BDE8104008F09CBDEF
:1056880004B010BD34090020195A0008A8D6010832
:1056980038090020E008002044080020ADD60108A1
:1056A800D0D50108024B1A6801321A60704700BF52
:1056B8003C090020014B1868704700BF44080020CF
:1056C8002DE9F047394B3A4A19681160394A12688E
:1056D800002A3CD11A6801321A601E68A6B9364CF5
:1056E80023681B682BB13548354940F2AA7208F087
:1056F80063FD344B2268196821601A60324B1A68BE
:1057080001321A60FFF75CFE304FDFF8D0803B684B
:10571800DFF8CC909E424FF000040DD3264B1A6858
:10572800126812B94FF0FF3305E01B68DB68DD68CB
:105738006B689E4211D23B60D9F80030DB6A1422B4
:10574800534358F80330022B28BF012425E0204B8F
:105758001A6801321A6000241FE005F1040A504655
:10576800FFF7D6FDAB6A1BB105F11800FFF7D0FDB6
:10577800184AEB6A1068012199400143142011600E
:1057880000FB03805146FFF79FFDD9F80030EA6A15
:10579800DB6A9A4228BF0124C0E70F4B1B68002B25
:1057A80018BF01242046BDE8F08700BF4408002048
:1057B800080000E03C090020D8080020D1D60108E4
:1057C800D0D50108400900204409002038090020EC
:1057D800EC0800203C080020DC08002048080020D5
:1057E800E808002070B52E4C23682BB92D482E49A7
:1057F80040F28E6208F0E0FC01F0ECFA2368013B0D
:10580800236023680BB1002445E0284B1B68002B5C
:10581800F9D0274B1A680AB3DB68DC68261D04F147
:105828001800FFF775FD3046FFF772FD214AE36A5D
:105838001168012505FA03F0014311601E4A14207E
:1058480000FB03203146FFF73FFD1C4BE26A1B6853
:10585800DB6A9A4224BF1A4B1D60DAE7194C2368A9
:10586800ABB9174B1C68012CCDD1174B4FF08052A8
:105878001A60BFF34F8FBFF36F8F0CE0FFF720FF65
:1058880010B10F4B01221A602368013B2360236883
:10589800002BF3D1E5E701F0BFFA204670BD00BF49
:1058A8003C090020FCD60108D0D5010804090020D5
:1058B800280800203C08002048080020E8080020AC
:1058C800DC080020EC08002004ED00E038B50C46A8
:1058D800054628B92548264940F23F3208F06CFCB5
:1058E8002CB9244822494FF4507208F065FC224B29
:1058F8001B682BB121481E4940F2413208F05CFC7C
:10590800FFF7D0FE1E4B2A681B689342144402D24C
:10591800944207D201E0944206D39C4294BF0023EC
:10592800012302E0002300E001232C6093B1154D10
:1059380028680430FFF7ECFC48B9134B19682A684B
:10594800D26A012000FA02F221EA02021A60204615
:10595800FFF748FDFFF746FF38B90C4B4FF0805270
:105968001A60BFF34F8FBFF36F8F38BD11D701088F
:10597800D0D5010824D701083C09002057D60108D2
:1059880044080020E80800203C08002004ED00E05E
:1059980038B5044640B9174B4FF080521A60BFF330
:1059A8004F8FBFF36F8F38BD134B1B682BB1134854
:1059B800134940F2A33208F0FFFBFFF773FE114DC5
:1059C800114B1B68286804301C44FFF7A1FC48B938
:1059D8000E4B19682A68D26A012000FA02F221EAFD
:1059E80002021A602046FFF7FDFCFFF7FBFE0028C5
:1059F800D1D038BD04ED00E03C09002057D601089D
:105A0800D0D50108E8080020440800203C08002000
:105A180008B5124D2B68F3B1114CFFF743FE266809
:105A2800FFF7E0FE002EF4D001F0D4F9E368DC685B
:105A3800201DFFF76DFC0B4B1A68013A1A602B68A2
:105A4800013B2B6001F0E8F9206B01F027F92046B3
:105A580001F024F9DDE703F0C1FBDAE74008002094
:105A6800C4080020040900202DE9F0410D46044631
:105A78001746FFF717FE1D4B1B689D4230D31C4E7F
:105A88000025A6F1780804EB451031460122FFF7FE
:105A980051FC143E46450544F5D1164B04EB451020
:105AA80019680222FFF746FC134B0544196804EBFA
:105AB80045100222FFF73EFC054404EB45100F4950
:105AC8000422FFF737FC054404EB45100C49032278
:105AD800FFF730FC054427B10DF0E6FD386000E023
:105AE8000025FFF77FFE2846BDE8F0810409002065
:105AF800AC080020D808002040090020C408002075
:105B0800F008002038B50D46044608B9044B1C6857
:105B180001F060F92565BDE8384001F07DB900BFA6
:105B2800E808002070B51F4B1A681F4B0AB1012204
:105B380035E01A600DF0B8FD1C4B1D4C18601D4B6C
:105B48001A6890421E4604D923685D6DAA1A024459
:105B58005A65194B30601D68B5FA85F5EDB2C5F187
:105B68001F051422154B6A431E469A582AB9144831
:105B7800144940F6C80208F01FFB142303FB056311
:105B880003F108015A6852685A608A4204BF526891
:105B98005A605B68DB68236023685A6B0A4B1A609B
:105BA80070BD00BF3C090020DC080020C0080020B0
:105BB800E8080020E40800203C08002048080020ED
:105BC8003CD70108D0D50108040000E070B50D46A7
:105BD800064628B91548164940F6DA0208F0ECFAE4
:105BE800144C216830461831FFF77AFB20680430DE
:105BF800FFF78EFB48B9104B19682268D26A01205A
:105C080000FA02F221EA02021A606B1C06D121682E
:105C18000A480431BDE87040FFF756BB084B1868C6
:105C28002844BDE87040FFF7DDBB00BF83D70108FB
:105C3800D0D50108E80800203C080020F008002022
:105C480044080020F8B50E461746054628B91548F9
:105C5800154940F6591208F0AFFA144C2168284645
:105C68001831FFF731FB20680430FFF751FB48B9C2
:105C78000F4B19682268D26A012000FA02F221EA61
:105C880002021A60012F06D121680A480431BDE8D2
:105C9800F840FFF719BB084B18683044BDE8F840D6
:105CA800FFF7A0BB83D70108D0D50108E80800207A
:105CB8003C080020F00800204408002038B5C368DC
:105CC800DC682CB91648174940F6B41208F074FA83
:105CD80004F118052846FFF71BFB134B1B687BB91B
:105CE800251D2846FFF714FB104AE36A10680121B6
:105CF8009940014311600E4A142000FB032000E084
:105D08000C482946FFF7E0FA0B4BE26A1B68DB6A8E
:105D18009A4283BF094B01201860002038BD00BF9C
:105D2800A9D70108D0D501083C0900203C0800206B
:105D38004808002028080020E8080020DC08002087
:105D480010B5044628B90648064940F6142208F05A
:105D580033FA054B1B682360044B1B68636010BD56
:105D6800D8D70108D0D501084409002044080020EC
:105D780038B50D46044628B91548164940F61E227E
:105D880008F01AFA2DB91448124940F61F2208F0F3
:105D980013FA01F01FF8114B1A682B68591C10D020
:105DA8000F49086821688842616801D08A420AD28E
:105DB800501A984207D28A1A13442B602046FFF7DC
:105DC800BFFF002400E0012401F026F8204638BD7A
:105DD800D8D70108D0D50108E2D701084408002027
:105DE80044090020014B01221A607047DC0800209A
:105DF800054B1B6833B1054B1B68002B14BF0020F3
:105E08000220704701207047E00800203C0900206C
:105E18002DE9F041044600283BD01F4DC36A2A688B
:105E2800D26A934235D28269002A04DB2A68D26A90
:105E3800C2F106028261194F62694FF0140808FB2B
:105E480003739A4222D1261D3046FFF761FA144B9C
:105E580060B9E26A08FB02F857F8081031B9196806
:105E6800012000FA02F221EA02021A602A68186880
:105E7800D26AE2620121914001431960142000FBBB
:105E880002703146BDE8F041FFF71EBA2B68DB6AA5
:105E9800E362BDE8F08100BFE80800204808002060
:105EA8003C08002070B5044608B9002070BD204B9E
:105EB8001B68984205D01F481F4940F6A75208F0B2
:105EC8007BF9E36C2BB91D481B4940F6A95208F031
:105ED80073F9E36CE16AA26C013B9142E364E4D09C
:105EE800002BE2D1251D2846FFF712FA1449154B5D
:105EF80058B9E26A14205043085830B91868012686
:105F080006FA02F220EA02021A60A26CE262C2F108
:105F18000600A0611868012404FA02F630431860EC
:105F2800142000FB02102946FFF7CEF9204670BD69
:105F3800E8080020F0D70108D0D5010806D80108E4
:105F4800480800203C080020044B1A681AB11A6857
:105F5800D16C0131D1641868704700BFE80800208F
:105F680038B51546026C044632B9056845BB406829
:105F7800FFF798FF656024E06DB9806817F02EFA86
:105F8800A268236C13446268A360934218D3236801
:105F9800A360284615E0C06817F020FA236CE26871
:105FA80021685B421A448A42E26002D26268134462
:105FB800E360022D04D1A36B13B1A36B013BA36370
:105FC8000020A36B0133A36338BD30B5026C0346D0
:105FD8006AB1C46845681444AC42C46024BF04680C
:105FE800C460BDE830400846D96817F0F7B930BD3D
:105FF80010B5044600F0EEFEA36C002B0CDD636ABE
:1060080053B104F12400FFF759FE08B1FFF7EAFE87
:10601800A36C013BA364EFE74FF0FF33A36400F0E8
:10602800FBFE00F0D7FE636C002B0CDD236953B137
:1060380004F11000FFF742FE08B1FFF7D3FE636CCE
:10604800013B6364EFE74FF0FF336364BDE8104042
:1060580000F0E2BE38B50D46044628B91A481B4977
:106068004FF4847208F0A8F800F0B4FE226CE06BDC
:106078002368A3605043821A191813446160E360CF
:1060880000214FF0FF33A1636364A36485B92369DA
:10609800B3B104F11000FFF711FE012810D10C4B29
:1060A8004FF080521A60BFF34F8FBFF36F8F07E036
:1060B80004F11000FFF7FAF804F12400FFF7F6F8EE
:1060C80000F0AAFE012038BD67D801086FD8010882
:1060D80004ED00E0F8B50D461746064628B9144801
:1060E800144940F2431208F067F81DB105FB06F0A9
:1060F800013000E02846543000F032FD044670B10B
:106108000DB9206002E000F154030360E6632564E2
:1061180020460121FFF79EFF84F8507005E00648ED
:10612800044940F27F1208F047F82046F8BD00BF46
:1061380088D801086FD80108ADD601082DE9FF41BC
:106148000E4601921D46044628B95948594940F25D
:10615800672208F031F81EB9236C002B40F08F80BD
:10616800022D03D1E36B012B40F09080FFF740FE36
:1061780018B9019B002B40F09080002700F02AFE00
:10618800A26BE36B9A4201D3022D1FD1E36C4A4AFA
:1061980043F480731360204631462A46FFF7E0FE39
:1061A800636A33B104F12400FFF788FD012809D19F
:1061B80000E038B1414B4FF080521A60BFF34F8F67
:1061C800BFF36F8F00F028FE01206DE0DDF804803A
:1061D800B8F1000F02D100F01FFE49E017B902A87C
:1061E800FFF7AEFD00F018FEFFF75CFA00F0F2FDD5
:1061F800636C013304BF00236364A36C013304BFE1
:106208000023A36400F008FE02A801A9FFF7B0FD6F
:1062180048BB00F0DFFDD4F83880E76B00F0FCFDE8
:10622800B8451AD1E36C244A43F48063136004F13F
:1062380010000199FFF7CAFC2046FFF7D9FEFFF7C7
:10624800D1FA08B1012799E71C4B4FF080521A6028
:10625800BFF34F8FBFF36F8FF4E72046FFF7C8FEF9
:10626800FFF7C0FAEEE72046FFF7C2FEFFF7BAFADB
:10627800E26C114B42F400721A60002014E01048DE
:106288000C494FF41A7207F097FF69E70D4809495E
:1062980040F2692207F090FF68E70B4805494FF480
:1062A8001B7207F089FF68E704B0BDE8F08100BF02
:1062B80067D801086FD801080C0000E004ED00E081
:1062C800AAD80108FAD8010841D9010870B50646CC
:1062D800542000F045FC0446D8B101230025C363CF
:1062E8004FF0FF33856345604364056083648560D0
:1062F800C560056480F850601030FEF7D7FF04F1E0
:106308002400FEF7D3FF204629462A462B46FFF7EE
:1063180015FF204670BD00002DE9F0410E461746D6
:106328001D46044628B92648264940F2244207F06B
:1063380043FF16B9236C002B33D1022D02D1E36B36
:10634800012B35D100F046FEEFF311884FF05F03C3
:1063580083F31188BFF36F8FBFF34F8FA26BE36B8B
:106368009A4201D3022D17D1204631462A46FFF71B
:10637800F7FDA36C01330AD1636A5BB104F1240011
:10638800FFF79CFC30B12FB10120386005E0A36C09
:106398000133A364012000E0002088F31188BDE8E0
:1063A800F0810948074940F2254207F005FFC4E794
:1063B8000648044940F2264207F0FEFEC2E700BF45
:1063C80067D801086FD80108AAD80108FAD80108C7
:1063D80070B50D46044628B92148224940F2BF420B
:1063E80007F0EAFE236C2BB11F481E4940F2C34256
:1063F80007F0E2FE23680BB963684BBB00F0EAFDC7
:10640800EFF311864FF05F0383F31188BFF36F8FAB
:10641800BFF34F8FA26BE36B9A4215D2A36B013384
:10642800A363A36C01330AD1636A5BB104F124004E
:10643800FFF744FC30B12DB10120286005E0A36CC2
:106448000133A364012000E0002086F3118870BDA9
:10645800064804494FF4996207F0AEFECEE700BF44
:1064680067D801086FD8010897D90108B0D9010881
:106478002DE9FF410D4601929846044628B9564831
:10648800564940F25B5207F097FE1DB9236C002B6A
:1064980040F09080FFF7ACFC18B9019B002B40F04E
:1064A8009080002600F096FCA36B63B32046294633
:1064B800E668FFF78AFDB8F1000F10D1A36B013B26
:1064C800A363236813B9FFF73FFD60602369B3B185
:1064D80004F11000FFF7F2FB012810D107E0636A0E
:1064E800E66063B104F12400FFF7E8FB38B13C4BE8
:1064F8004FF080521A60BFF34F8FBFF36F8F00F0D9
:106508008BFC012064E0019F17B900F085FC4FE087
:1065180016B902A8FFF714FC00F07EFCFFF7C2F8DA
:1065280000F058FC636C013304BF00236364A36C60
:10653800013304BF0023A36400F06EFC02A801A984
:10654800FFF716FC78BB00F045FCA66B00F064FC76
:106558001EBBE36C234A43F440731360236833B9CA
:1065680000F038FC6068FFF753FC00F055FC04F1BC
:1065780024000199FFF72AFB2046FFF739FDFFF7B2
:1065880031F908B101268DE7154B4FF080521A609A
:10659800BFF34F8FBFF36F8FF4E72046FFF728FD57
:1065A800FFF720F9EEE72046FFF722FDFFF71AF97B
:1065B80000200DE00C48094940F25C5207F0FCFD50
:1065C80068E70A48054940F25F5207F0F5FD68E7B9
:1065D80004B0BDE8F08100BF67D801086FD8010892
:1065E80004ED00E00C0000E00BDA010841D90108D5
:1065F800F8B50D461646044628B91D481D4940F20F
:10660800156207F0D9FD0DB9236C4BBB00F0E2FC15
:10661800EFF311874FF05F0383F31188BFF36F8F98
:10662800BFF34F8FA06BC0B120462946FFF7CDFCC2
:10663800A36B013BA363636C01330AD123695BB18C
:1066480004F11000FFF73AFB30B12EB101203060A1
:1066580003E0636C01336364012087F31188F8BD9C
:106668000548044940F2166207F0A6FDCEE700BFD0
:1066780067D801086FD801080BDA010810B504467D
:1066880028B9064806494FF4D46207F095FD00F092
:10669800A1FBA46B00F0C0FB204610BD68D8010820
:1066A8006FD8010830B50023064A52F8334002EB90
:1066B800C3051CB942F83310686030BD01330A2B9A
:1066C800F2D130BD94C2002070B504460E4615467E
:1066D80000F080FB636C013304BF00236364A36C88
:1066E800013304BF0023A36400F096FBA36B2BB90E
:1066F80004F1240031462A46FFF7A4FA2046BDE8F3
:106708007040FFF775BC0000F8B5134C00F062FB51
:106718002568EDB9114F124E3846FEF7C7FD3046D1
:10672800FEF7C4FD0F4B1F600F4B14200C212A46A7
:106738001E60FFF7CFFC206028B90C480C4940F2D6
:106748001A3207F039FD206810B10A49FFF7AAFF8D
:10675800BDE8F84000F060BB780900204C09002033
:1067680060090020480900207C0900206FDA010830
:106778007BDA010895DA010810B5044691424160B8
:10678800206105D88169D21A8A420CD2074B04E0ED
:106798009A4201D2994206D2054B1868211DFEF78C
:1067A8009FFD002010BD012010BD00BF7C09002006
:1067B800480900201FB5FFF7A7FF0D4B1B6863B101
:1067C80001230093002301930293039309480A4984
:1067D8004FF49672FEF72EFE30B9084808494FF478
:1067E800877207F0E9FC002005B05DF804FB00BFE4
:1067F80078090020396900089ADA0108ADD601083D
:106808007BDA01082DE9F041804617461E460D4601
:1068180089B12C2000F0A4F9044698B1FFF774FF61
:10682800069BC4F80080A561E76126626362201DAB
:10683800FEF747FD06E0054805494FF49B7207F04F
:10684800BBFC2C462046BDE8F08100BFA2DA010857
:106858007BDA01082DE9FF410D46174698460646A2
:1068680028B91248124940F2411207F0A5FC114C10
:106878002068C0B1052D0195029703960EDCFFF73D
:10688800B7FA022818BF0022206808BF0A9A01A98F
:106898000CBF00231346FFF751FC04E001A9424650
:1068A8000023FFF739FD04B0BDE8F081BEDA010826
:1068B8007BDA010878090020F7B5194E33681A68A1
:1068C8003AB3DB68DC681D68271D3846FEF720FDF3
:1068D800636A20469847E369012BEED1A3692B44EC
:1068E800AB4206D96360246130683946FEF7F8FC8C
:1068F800E3E70021009120462A460B46FFF7AAFF4E
:106908000028DAD1074808494FF43F7207F054FCD1
:10691800D3E7064A11683160136003B0F0BD00BFC9
:1069280048090020C5DA01087BDA01087C09002043
:106938002DE9F04786B0DFF8ACA1DAF800301D6821
:10694800D5F1010538BF002515B9DB681E6800E0E0
:1069580000265E4CFEF7A6FEFEF7ACFE23689842C2
:106968000746A14603D2FFF7A7FF012300E0002353
:106978002760DFF87481002B42D145BBBE422DD879
:10698800FEF730FFDAF80030DB68DC68201DFEF720
:10699800BFFCE369012B16D1A169204631443A4670
:1069A8003346FFF7E9FE01280DD100952046294618
:1069B80032462B46FFF74EFF28B94548454940F275
:1069C800931207F0F9FB636A204698471EE0424B92
:1069D8001B681D68D5F1010538BF0025D8F80000EF
:1069E800F11B2A46FFF770FEFEF7FCFE70B93B4B21
:1069F8004FF080521A60BFF34F8FBFF36F8F05E0DF
:106A0800FEF7F0FE02E0039B002B09DA0022D8F81B
:106A1800000003A91346FFF72BFD0028F3D18AE7EE
:106A2800059C636913B1201DFEF772FCFEF742FE58
:106A3800D9F800309842054601D2FFF73DFF039B85
:106A4800C9F80050092BE1D8012202FA03F313F424
:106A5800047629D113F0C70F05D19B06D6D5204659
:106A680000F01CF9D2E7049BA169204619442A4684
:106A7800FFF782FE0128C9D1636A20469847E36977
:106A8800012BC3D1A269049B00961A4420463146C3
:106A98003346FFF7DFFE0028B8D10D480D494FF403
:106AA800287207F089FBB1E7049BA3612BB90C4856
:106AB800084940F2B72207F07FFBA1692046294424
:106AC8002A462B46FFF758FEA0E700BF74090020AE
:106AD800C5DA01087BDA01087C09002004ED00E032
:106AE800CDDA0108480900207809002010B50446CD
:106AF80028B9064806494FF4537207F05DFB00F0C9
:106B080069F9246A00F088F9204610BDBEDA010848
:106B18007BDA010810B5104B1A68824201D213467D
:106B2800FAE759685C18844203D140680144596007
:106B3800184641684418944208D1084C2468A24277
:106B480004D05268114441601A6812688342026096
:106B580018BF186010BD00BF8809002084090020F4
:106B68002DE9F8430646FEF79DFD4248424F03686B
:106B7800FBB9424B590705D00733414A23F00703B5
:106B8800D21A01E047F230521A44083A22F00702BA
:106B98003C4C026000216160236051601160D11A91
:106BA8001A605960384B1960384B19604FF0004330
:106BB8003B603B681E424CD1002E4BD006F10805C5
:106BC8006A071CBF25F007050835002D3FD02F4B5D
:106BD8001A68954299463CD82A4B1C686268AA42B2
:106BE80003D30268944206D133E02268002AF8D021
:106BF80023461446F2E722681E681A6063685B1B26
:106C0800102B06F1080611D904EB050818F0070F38
:106C180004D01F481F49E82207F0CEFA63685B1BBF
:106C2800C8F8043040466560FFF774FF164962688B
:106C3800D9F8003008689B1A8342C9F8003038BF79
:106C48000B603B681A4300236260236002E02E4613
:106C580000E00026FEF7C6FD0EB902F043F97307FF
:106C680005D00D480B494FF4947207F0A5FA304649
:106C7800BDE8F88384090020C07E00209009002028
:106C8800C07E002088090020C47E002080090020E2
:106C9800F2DA010833DB01085EDB010838B5044687
:106CA80088B3194B50F8042C196811421D4605D1B8
:106CB800164817494FF49E7207F07EFA54F8083CBC
:106CC8002BB11448124940F23D1207F075FA54F8F6
:106CD800043C2A681A4216D054F8081C99B923EAC9
:106CE800020344F8043CFEF7DDFC0B4B54F8041C8B
:106CF8001A68A4F108000A441A60FFF70BFFBDE800
:106D08003840FEF76FBD38BDC07E00209BDB010810
:106D180033DB0108CCDB010880090020014B18682F
:106D2800704700BF8009002006480068006880F3AB
:106D3800088862B661B6BFF34F8FBFF36F8F00DF6D
:106D480000BF000008ED00E0DFF80C00016841F426
:106D5800700101607047000088ED00E008B5094B3C
:106D68001B68013305D00848084940F2071207F0AC
:106D780023FA4FF05F0383F31188BFF36F8FBFF3DC
:106D88004F8FFEE700000020ECDB010806DC01085D
:106D98004FF0807300E90A00054B40F80C3C6FF097
:106DA800020340F8202C40F8243C4438704700BFC8
:106DB800656D0008064B19680868B0E8F04F80F365
:106DC8000988BFF36F8F4FF0000080F31188704778
:106DD800E80800204FF05F0383F31188BFF36F8F3B
:106DE800BFF34F8F084A13680133012B13600AD190
:106DF800064B1B6813F0FF0F05D00548054940F204
:106E08009F1207F0D9B970470000002004ED00E098
:106E180050DC010806DC010810B5084C23682BB9C2
:106E2800074808494FF4D37207F0C6F92368013BB5
:106E380023600BB983F3118810BD00BF0000002048
:106E480085DC010806DC0108EFF30980BFF36F8FCA
:106E5800144B1A681EF0100F08BF20ED108A20E9A5
:106E6800F04F10604DF8043D4FF05F0080F311883B
:106E7800BFF34F8FBFF36F8FFEF754FE4FF0000044
:106E880080F3118808BC19680868B0E8F04F1EF054
:106E9800100F08BFB0EC108A80F30988BFF36F8F1A
:106EA800704700BFE808002008B5EFF311834FF0E2
:106EB8005F0282F31188BFF36F8FBFF34F8FFEF726
:106EC800FFFB18B1034B4FF080521A60002383F385
:106ED800118808BD04ED00E0034B044A1A6007223C
:106EE80043F8042C704700BF14E000E03F90020014
:106EF80013B52D4B2D4A196891421C4605D12C48D3
:106F08002C4940F23D1207F057F922682A4B9A4261
:106F180005D12A4827494FF49F7207F04DF9284BAD
:106F28001A78D2B20192FF221A701B78DBB28DF860
:106F380003309DF80320234B02F05F021A70224AA7
:106F4800072313609DF80310090603F1FF3007D5E6
:106F58009DF803305B00DBB28DF803300346F1E7A0
:106F68001B0203F4E0631360019A154BD2B21A7046
:106F7800D3F8202942F47F02C3F82029D3F8202926
:106F880042F07F42C3F82029FFF7A6FF0F4B0022EB
:106F98001A60FFF7D9FE0E4B1A6842F040421A6099
:106FA800FFF7C2FEFFF7DAFE00ED00E071C20F4105
:106FB80097DC010806DC010870C20F41BADC010841
:106FC80000E400E0C87E0020CC7E00200000002005
:106FD80034EF00E008B5EFF305830F2B0BD90E4A09
:106FE8009B5C0E4A12789A4205D90D480D494FF418
:106FF800387207F0E1F80C4B1A680C4B1B6802F466
:10700800E0629A4207D90A4806494FF43C72BDE843
:10701800084007F0D1B808BDF0E300E0C87E0020C2
:10702800DDDC010806DC01080CED00E0CC7E002068
:1070380007DD010808B54FF48070012100F070FCED
:107048004FF480700021BDE8084000F069BC0000E2
:1070580043680A6823F0407323F4807313430A7962
:1070680043EA022343600B69CA681A438B6810B568
:107078001A438468084B234013434A7943EA42037E
:1070880083600B7DC26A013B22F47002DBB242EAE4
:107098000353C36210BD00BFFDF7FFC000230360A8
:1070A800037143718360C3600361012303757047F3
:1070B80010B5074A074B51680B4090E812000C4383
:1070C8008168C068214301430B43536010BD00BF72
:1070D80000230140E030FCFF00230360436083602D
:1070E800C3607047836811B143F0010301E023F0E6
:1070F800010383607047092970B50DD9A1F10A040D
:1071080004EB4404C6680725A54026EA0505A34004
:1071180045EA0304C4600BE0066901EB4104072556
:10712800A54026EA050503FA04F445EA04030361C9
:10713800062A0CD8013A446B02EB82021F239340C3
:1071480024EA030301FA02F21A43426370BD0C2ACF
:107158000CD8073A046B02EB82021F23934024EAFF
:10716800030301FA02F21A43026370BD0D3AC46ABE
:1071780002EB82021F23934024EA030301FA02F27E
:107188001A43C26270BD836843F0804383607047CE
:10719800C06C80B27047036819420CBF0020012000
:1071A80070470000044B5A6809B1104301E022EA15
:1071B80000005860704700BF002004E0044BDA6804
:1071C80009B1104301E022EA0000D860704700BF0F
:1071D800002004E0036823F0010303600023036038
:1071E80043608360C360036121234361294B984254
:1071F80017D0294B98421BD0284B984220D0284BB7
:10720800984225D0274B98422AD0274B98422ED017
:10721800264B984232D0264B984236D0254B98427E
:1072280003D13D2243F8082C7047234B984204D1E0
:107238004FF4746243F8202C7047204B984204D1D5
:107248004FF4741243F8382C70471D4B984204D100
:107258004FF0746243F8502C70471A4B984203D190
:10726800194A43F8642C7047184B984203D1184ABE
:1072780043F87C2C7047174B984203D1164A43F8C1
:10728800942C7047154B984203D14FF03D5243F868
:10729800AC2C7047106002402860024040600240F9
:1072A800586002407060024088600240A06002405E
:1072B800B860024010640240286402404064024002
:1072C80058640240706402403D0000208864024017
:1072D800400F0020A064024000003D20B864024036
:1072E8000268134B10B51340CC680A6814434A6906
:1072F80014438A691443CA6914430A6A14434A6ADC
:1073080014438A6A14434A6B14438A6B2243134317
:10731800036044690A6BCB6A24F0070413432343D0
:1073280043610B6943604B6883608B68C36010BD21
:107338003F801CF0036811B143F0010301E023F022
:1073480001030360704741607047406880B270472E
:10735800006800F00100704710B50A4B0A4A0B4C50
:10736800A0428CBF104618468B004CBF4368036888
:1073780021F0F02121F0821119420CBF00200120D8
:1073880010BD00BF00600240006402400F6402406C
:1073980010B5084B084A094CA0428CBF1046184645
:1073A80011F0005F21F0F02121F0821114BFC160BB
:1073B800816010BD00600240006402400F6402401A
:1073C8000B0611D543694AB143F080038029436114
:1073D80014D0036801F01E0119430EE023F0800366
:1073E8008029436104D17047802907D0002AF0D151
:1073F800036801F01E0123EA0101016070470000E3
:1074080030B5104B104A114D21F0F024A8428CBF22
:1074180015461D4624F0C3132BB1026802F01E0264
:1074280002EAD12202E0426902F080028B004CBFDE
:107438006B682B6824F08210184002D0101C18BF0B
:10744800012030BD00600240006402400F64024029
:1074580010B5084B084A094CA0428CBF1046184684
:1074680011F0005F21F0F02121F0821114BFC160FA
:10747800816010BD00600240006402400F64024059
:107488008379026810B5002B2FD01D4B196821EAAB
:1074980002021A605968026821EA02025A600279F7
:1074A800016802F1804202F59E321468214311609E
:1074B8009968026821EA02029A60D968026821EA9A
:1074C8000202DA6041790268102907D199680A43F3
:1074D8009A60D96802680A43DA6010BD01F18043F6
:1074E80003F59E3319680A4307E0037903F18043E3
:1074F80003F59E33196821EA02021A6010BD00BF25
:10750800003C0140014B5861704700BF003C0140FE
:10751800034B5B6918420CBF00200120704700BF75
:10752800003C0140014B5861704700BF003C0140DE
:10753800F0B5002301220D689A40154095422AD1E2
:107548005A00032406689440E443264006600E79F6
:10755800076896403E4306600E79013E012E11D819
:107568008668264086604E79876896403E438660E6
:10757800466826EA050545608D7946689D40ADB2A6
:1075880035434560C5682C40C460CD79C46805FAA8
:1075980002F22243C2600133102BCBD1F0BD4FF66B
:1075A800FF7303600023037143718371C3717047D4
:1075B800036919420CBF00200120704701837047FE
:1075C800418370470AB1018370474183704710B502
:1075D80001F00703C90800EB81009B00046A0F2132
:1075E800994024EA01010162016A9A40114301624B
:1075F80010BD000008B5134B984207D14FF4001096
:10760800012100F081F94FF4001014E00E4B98426C
:1076180007D14FF48000012100F076F94FF4800083
:1076280009E00A4B98420BD14FF40000012100F009
:107638006BF94FF400000021BDE8084000F064B980
:1076480008BD00BF0054004000580040005C0040E6
:10765800F0B585B004468688324F68460D4600F07E
:10766800DFF80298304B26F03F063604B0FBF7F7F8
:10767800360C1FFA87FC4CEA0606A680218821F002
:1076880001010904090C21802A689A420DD8530087
:10769800B0FBF3F39BB20CF1010C032B1FFA8CFC2B
:1076A80098BF0423A4F820C022E0E9884BF6FF73B2
:1076B800994205D102EB4202B0FBF2F39BB206E01D
:1076C80019235343B0FBF3F39BB243F48043C3F352
:1076D8000B020AB943F001034FF4967257434FF473
:1076E8007A7297FBF2F70137BFB243F4004327845D
:1076F800A38323889BB243F00103238023886989ED
:10770800AA8823F4816323F002031B040A431B0C99
:1077180013439BB223802A89AB8913439BB22381ED
:1077280005B0F0BD40420F00A086010012B141F043
:10773800010101E001F0FE0101827047038819B1DF
:107748009BB243F4806303E023F480631B041B0CA7
:107758000380704701827047008AC0B270478388EF
:1077680019B19BB243F4006303E023F400631B04E4
:107778001B0C83807047838819B19BB243F48053F4
:1077880003E023F480531B041B0C83807047838819
:107798009BB20AB1194301E023EA010181807047D5
:1077A80082B00023009301930B0F01900093009B7C
:1077B80021F07F4113B1019B143302E0019B090CB6
:1077C80018330193019B1B6819420CBF002001204C
:1077D80002B07047C94389B281827047014B186073
:1077E800704700BF00300040014B5860704700BF31
:1077F80000300040014B9860704700BF00300040E7
:10780800024B4AF6AA221A60704700BF00300040B7
:10781800024B4CF6CC421A60704700BF0030004063
:1078280010B51D4B9A6802F00C02042A03D0082AEE
:1078380003D01A4B18E01A4B16E059685A6811F42D
:10784800800F596814BF164B144B02F03F02B3FB6C
:10785800F2F3114A5268C2F30142C1F388110132AE
:107868004B435200B3FBF2F30B4903608B680D4A9C
:10787800C3F30313D45C0368E34043608C68C4F328
:107888008224145D23FA04F484608968C1F34231C8
:10789800525CD340C36010BD003802400024F4009D
:1078A80000127A0004000020044B1A6B09B110433F
:1078B80001E022EA00001863704700BF0038024068
:1078C800044B5A6B09B1104301E022EA00005863E7
:1078D800704700BF00380240044B1A6C09B11043CE
:1078E80001E022EA00001864704700BF0038024037
:1078F800044B5A6C09B1104301E022EA00005864B5
:10790800704700BF00380240044B1A6A09B110439F
:1079180001E022EA00001862704700BF0038024008
:10792800044B5A6A09B1104301E022EA0000586288
:10793800704700BF003802404309012B074A01D1B4
:10794800136803E0022B0CBF136F536F00F01F0086
:1079580023FA00F000F00100704700BF0038024031
:10796800024B5A6F42F080725A67704700380240E3
:1079780008B5254B984207D14FF480500121FFF7F5
:10798800CFFF4FF4805039E0204B984207D14FF495
:1079980080400121FFF7B8FF4FF4804009E01C4BFD
:1079A80098420BD14FF400400121FFF7ADFF4FF48F
:1079B80000400021BDE80840FFF7A6BF154B9842DC
:1079C80007D14FF400500121FFF7AAFF4FF40050F0
:1079D80014E0114B984207D14FF480100121FFF7B2
:1079E8009FFF4FF4801009E00C4B98420BD14FF4E5
:1079F80000100121FFF794FF4FF400100021BDE8AB
:107A08000840FFF78DBF08BD003001400038004036
:107A1800003C004000340140005001400054014047
:107A28000B88028810B54C8823438C882343CC8864
:107A380023430C8923434C8923438C892343CC89D2
:107A480002F44152234313439BB20380838B23F4F4
:107A580000631B041B0C83830B8A038210BD0388FD
:107A680019B19BB243F0400303E023F040031B0429
:107A78001B0C0380704783889BB20AB1194301E04D
:107A880023EA01018180704730B5048C24F0010499
:107A98002404240C0484058B048CADB225F0F30572
:107AA800A4B22A4324F00A0442EA031344F001046E
:107AB8009DB221430583018430BD30B5048C24F088
:107AC80010042404240C0484058B048C25F44075CC
:107AD800A4B22D052D0D24F0A00444F0100445EAAD
:107AE800022242EA033344EA01119BB28CB20383B7
:107AF800048430BD08B5474B984205D101200146A2
:107B0800FFF70EFF01203DE0B0F1804F05D10120C5
:107B18000146FFF7F9FE012076E03F4B984205D178
:107B280002200121FFF7F0FE02206DE03B4B984256
:107B380005D104200121FFF7E7FE042064E0384B5B
:107B4800984205D108200121FFF7DEFE08205BE0FE
:107B5800344B984205D110200121FFF7D5FE1020A3
:107B680052E0314B984205D120200121FFF7CCFE8D
:107B7800202049E02D4B984209D102200121FFF72E
:107B8800CFFE02200021BDE80840FFF7C9BE284B00
:107B9800984207D14FF480300121FFF7C1FE4FF41E
:107BA8008030EFE7234B984207D14FF40030012192
:107BB800FFF7B6FE4FF40030E4E71F4B984207D1B9
:107BC8004FF480200121FFF7ABFE4FF48020D9E766
:107BD8001A4B984205D140200121FFF795FE40201D
:107BE80012E0174B984205D180200121FFF78CFE47
:107BF800802009E0134B98420BD14FF4807001218B
:107C0800FFF782FE4FF480700021BDE80840FFF7BF
:107C18007BBE08BD00000140000400400008004091
:107C2800000C004000100040001400400004014017
:107C38000040014000440140004801400018004055
:107C4800001C0040002000401C4A038890429BB260
:107C580012D002F5806290420ED0B0F1804F0BD066
:107C6800A2F58032904207D002F58062904203D09C
:107C780002F58062904203D14A8823F070031343CF
:107C88000F4A904208D002F58062904204D023F453
:107C980040730A899BB2134303804B68C3620B8805
:107CA8000385064B984203D003F58063984201D1BF
:107CB8008B7A038601238382704700BF000001404E
:107CC800001000404FF0FF3343600023038003811E
:107CD800438083727047018582827047038819B197
:107CE8009BB243F0010303E023F001031B041B0CC8
:107CF80003807047038C23F001031B041B0C0384CF
:107D080070B5038C8488028B0D884E8822F073022C
:107D18001204120C2A438D8923F002031B043543F5
:107D2800ADB21B0C2B430E4DA842A4B203D005F5EF
:107D38008065A8420ED1CD894E8A23F008032B43D3
:107D48008D8823F004032B430D8A354324F44074B3
:107D5800ADB22C43848002838A684263038470BD79
:107D680000000140038C23F010031B041B0C038448
:107D7800038C828830B5048B0D8824F4E6442404EF
:107D8800240C23F0200344EA05241B048D891B0CD2
:107D980043EA05134D8843EA0513134DA84292B2EE
:107DA800A4B29BB203D005F58065A84215D1CD8950
:107DB80023F080039BB243EA05134FF6BF751D40BD
:107DC8008B8845EA03130D8A22F4406242EA850251
:107DD8004D8A42EA85029BB292B2828004838A6805
:107DE8008263038430BD00BF00000140038C23F48C
:107DF80080731B041B0C0384038C828830B5848B2E
:107E08000D8824F073042404240C23F400732C43F9
:107E18001B048D891B0C43EA05234D8843EA05237F
:107E2800124DA84292B29BB203D005F58065A842D4
:107E380015D1CD8923F400639BB243EA05234FF69D
:107E4800FF351D408B8845EA03230D8A22F44052F2
:107E580042EA05124D8A42EA05129BB292B282802A
:107E680084838A68C263038430BD00BF0000014078
:107E7800038C23F480531B041B0C0384038C30B540
:107E88008488828B0D8822F4E6421204120C23F4B3
:107E9800005342EA05221B048D891B0C43EA053373
:107EA8004D8843EA05330B4DA842A4B292B29BB267
:107EB80003D005F58065A84205D10D8A24F48044D5
:107EC80044EA8514A4B2848082838A6802640384A5
:107ED80030BD00BF000001404163704781637047B7
:107EE800C163704701647047038B23F008031B04C8
:107EF8001B0C194301837047038B23F400631B0495
:107F08001B0C43EA01218BB203837047838B23F058
:107F180008031B041B0C194381837047838B23F4CC
:107F280000631B041B0C43EA01218BB28383704757
:107F380000230122038043808280C380038170472D
:107F4800406B7047806B7047006C7047038B23F061
:107F58000C031B041B0C0383038B9BB21943018383
:107F68007047038B23F440631B041B0C0383038BB0
:107F78009BB243EA01218BB203837047838B23F0C2
:107F88000C031B041B0C8383838B9BB219438183D3
:107F98007047838B23F440631B041B0C8383838B00
:107FA8009BB243EA01218BB283837047F8B50D4633
:107FB8000E88AA8849882B8904463EB9FFF764FDD4
:107FC8002046E988BDE8F840FFF7C0BF042E07D176
:107FD800FFF773FD2046E988BDE8F840FFF7C1BF09
:107FE800082EB0F820C01FD12CF4807C4FEA0C4C2E
:107FF8004FEA1C4CA0F820C0878B068CBFB2B6B2E3
:1080080027F0F30726F4206647EA031346EA01211E
:108018009BB289B21A4341F4807182830184E98852
:10802800BDE8F840FFF7AABF2CF4805C4FEA0C4C7F
:108038004FEA1C4CA0F820C0878B068C27F44077A9
:1080480026F400563F057604760C3F0D47EA0227D2
:1080580046EA013147EA033389B29BB241F48051C1
:1080680083830184E988BDE8F840FFF792BFB0F840
:10807800443029B16FEA43436FEA53439BB201E0AE
:10808800C3F30E03A0F84430704783899BB20AB14A
:10809800194301E023EA010181817047038A1942EB
:1080A8000CBF002001207047038A828911EA03006F
:1080B80092B203D011420CBF002001207047C9437F
:1080C80089B20182704783899BB20AB1194301E0E2
:1080D80023EA01018181704730B5038ACA889BB2BF
:1080E80023F440530D46134303820989AB888289E0
:1080F8000B43698992B20B4322F4B05222F00C026E
:108108009BB213438381838AAA899BB223F4407369
:10811800134385B0838204466846FFF781FB194BF9
:108128009C4203D003F580639C4201D1039B00E08D
:10813800029BA28912B2002A2A684FF01901B4BF23
:10814800520092005943B1FBF2F16423B1FBF3F200
:108158001201100903FB1011A08900B2002806DAE9
:10816800C9003231B1FBF3F303F0070305E009015D
:108178003231B1FBF3F303F00F031A4392B22281B9
:1081880005B030BD00100140838919B19BB243F49A
:10819800005303E023F400531B041B0C8381704736
:1081A800C1F30801818070478088C0F308007047D8
:1081B800838A9BB20AB1194301E023EA0101818253
:1081C8007047C1F3421310B5012401F01F01A34207
:1081D80004FA01F101D10C3003E0022B0CBF10307E
:1081E800143003680AB1194301E023EA0101016070
:1081F80010BDC94389B20180704710B5C1F342145C
:1082080001F01F030122012C02FA03F201D1838934
:1082180003E0022C0CBF038A838A9BB213400288B6
:1082280092B243B10123090A03FA01F111420CBFCA
:108238000020012010BD184610BD000040F0BF60AE
:10824800024B40F40030D860704700BF00ED00E0FA
:10825800C278037810B50AB3164A4478D268D24374
:10826800C2F30222C2F10401C9B204FA01F10F24D7
:1082780044FA02F28478C9B222400A4303F1604307
:1082880003F561431201D2B283F800230378012277
:10829800590903F01F0302FA03F306E05909012202
:1082A80003F01F0302FA03F32031034A42F8213096
:1082B80010BD00BF00ED00E000E100E010B501F0E6
:1082C800030301F0FC0101F1804101F59C319B00A1
:1082D8008C680F229A4024EA02028A608A689840D1
:1082E80002438A6010BD08B507F087FF00F032FE30
:1082F800FDF792F907F0FEFF0020012107F0F4FFD7
:108308000120014607F0F0FFFEE700002DE9F041EB
:108318001F4E3578002D38D11E4C01214FF4804076
:10832800FFF7CEFA01270623A57020460D252370F6
:10833800E7706570FFF78CFF072320462370657090
:10834800FFF786FF0823204623706570FFF780FF3C
:108358000923204623704FF00A086570FFF778FF5D
:1083680005232046637084F80080FFF771FF172308
:10837800204623706570FFF76BFF2823204684F89A
:1083880001802370FFF764FF3770BDE8F08100BFFC
:10839800D47E0020D07E0020704708B50120FFF76A
:1083A800C1F8FFF7F9FF08BD704708B50220FFF7CD
:1083B800B9F8FFF7F9FF08BD704708B50420FFF7C3
:1083C800B1F8FFF7F9FF08BD704708B50820FFF7B7
:1083D800A9F8FFF7F9FF08BD08B51020FFF7A2F8C4
:1083E80009F0D8FF08BD704770477047704770475D
:1083F80008B52020FFF78CF8012804D12020FFF7CA
:1084080091F8FFF7F0FF4020FFF782F8012804D128
:108418004020FFF787F8FFF7E7FF8020FFF778F89D
:10842800012804D18020FFF77DF8FFF7DEFF4FF425
:108438008070FFF76DF8012805D14FF48070FFF7C1
:1084480071F8FFF7D3FF4FF40070FFF761F80128C8
:1084580005D14FF40070FFF765F8FFF7C8FF08BDB6
:10846800704770477047704708B54FF48060FFF752
:108478004FF8012805D14FF48060FFF753F8FFF754
:10848800EFFF4FF40060FFF743F8012805D14FF4E0
:108498000060FFF747F810F003FD4FF48050FFF736
:1084A80037F8012805D14FF48050FFF73BF8FFF764
:1084B800D8FF4FF40050FFF72BF8012805D14FF4EF
:1084C8000050FFF72FF80BF07BFF4FF48040FFF7C9
:1084D8001FF8012805D14FF48040FFF723F8FFF774
:1084E800C1FF4FF40040FFF713F8012805D14FF4FE
:1084F8000040FFF717F8FFF7B6FF08BD4FF44070CC
:10850800FFF79CBEFEF7D0BC70471EF0040F0CBFEF
:10851800EFF30880EFF3098000F002B8704700001D
:108528002DE9F84FD0F800B0D0F804A0D0F80890A2
:10853800D0F80C80076946698569C46934493548AB
:1085480005F0AAFF344933485A4605F0A5FF3349D8
:108558003048524605F0A0FF31492E484A4605F0FA
:108568009BFF30492B48424605F096FF2E49294883
:108578003A4605F091FF2D492648324605F08CFF12
:108588002B4924482A4605F087FF2A4921482246D4
:1085980005F082FF284B29491A681E4805F07CFF20
:1085A800274B28491A681B4805F076FF264B2749B0
:1085B8001A68184805F070FF254B26491A681548AF
:1085C80005F06AFF244B25491A68124805F064FF34
:1085D8000020014600F05AF90120002100F056F968
:1085E8000220002100F052F90320002100F04EF98A
:1085F80007F0ACFE0220012107F076FE04200121DD
:1086080007F072FE1648932105F00EFEFEE700BF44
:1086180049DD0108BD2401085FDD010868DD0108A6
:1086280071DD01087ADD010883DD01088DDD0108AF
:1086380096DD01089FDD010838ED00E0A9DD01089D
:1086480028ED00E0B4DD01082CED00E0BFDD0108F5
:1086580030ED00E0CADD01083CED00E0D5DD0108A1
:10866800E0DD0108002008B5014600F00FF90120FF
:10867800002100F00BF90220002100F007F9032087
:10868800002100F003F907F061FE0220012107F044
:108698002BFE0420012107F027FE0248A62105F041
:1086A800C3FDFEE7E0DD0108002008B5014600F043
:1086B800EDF80120002100F0E9F80220002100F087
:1086C800E5F80320002100F0E1F807F03FFE022062
:1086D800012107F009FE0420012107F005FE0248E8
:1086E800BA2105F0A1FDFEE7E0DD0108002008B58C
:1086F800014600F0CBF80120002100F0C7F8022065
:10870800002100F0C3F80320002100F0BFF807F0B3
:108718001DFE0220012107F0E7FD0420012107F0DA
:10872800E3FD0248CE2105F07FFDFEE7E0DD01080C
:10873800704708F0EDBC000037B500240E4D6846C0
:10874800FEF72DFF2B681A59D26800921B5969460B
:108758009868FEF7EDFE2B681B5900229868198A65
:10876800FEF735FF2B681B590434186AFFF7C2F966
:10877800102CE3D103B030BDE4C200202DE9F04154
:10878800404B414D1A788AB00446984612B1286881
:10879800FFF7D2FF2C6000242B681B590121586871
:1087A800FFF782F82B681B590121D869FFF794F865
:1087B8006846FEF7F4FE02238DF804308DF8053084
:1087C8002B681A5952698DF806201A59D2680092F6
:1087D8001B5969469868FEF7ABFE2B681B599868C9
:1087E800198A1A7EFEF7F3FE2B681A59D26A039289
:1087F8001A590026128EADF80820ADF81060ADF8B1
:108808000A608DF812601B5902A9186AFFF71CFA52
:108818006023ADF8143001272B68ADF81670079661
:108828001A59928CADF820204FF48072ADF82420AC
:108838001B5905A9DA6B186A90472B681B59082140
:108848001A6C186A90472B681B593946986AFEF7C4
:10885800B5FC2B681B593946186A0434FFF707FC26
:10886800102C99D12B689B590121186A0436FFF7FF
:1088780035FA102EF6D1012388F800300AB0BDE889
:10888800F08100BFE87E0020E4C2002070B52DED25
:10889800028B2C4B1B7805460C46002B4FD0032827
:1088A80004D929482949D82205F086FC284B1A689A
:1088B80052F8252012781E4652BB07EE104ADFED0B
:1088C800257A9FED258ABBEEC87A67EE277A9FED59
:1088D800237A27EE888A27EE877AA7EE278A0AF076
:1088E800EDF988EE000A1E4BF7EE007AB4EE670A3F
:1088F800F1EE10FAC8BFB0EE670ADFED1A7A20EE83
:10890800270ABCEEC00A10EE104AA4B243F825406C
:10891800336853F825301A78012A5A6B0CD145F27E
:1089280008214FF6FF706143B1FBF0F101F5A44156
:108938000831186A89B201E0186A210A9047BDEC2B
:10894800028B70BDE87E0020D4DE0108E7DE010856
:10895800E4C20020000070425839B43D388D23BA73
:10896800D87E002000FF7F4770B500240D4B1B68A0
:108978001B591D7885B90C4BE65843F23331304604
:10898800FFF784FF3220FDF703F830462946FFF74A
:108998007DFF9620FCF7FCFF0434102CE6D1034B36
:1089A800187870BDE4C200203CDE0108E87E002093
:1089B8007320704710B588B0184B194A1B6893424A
:1089C80027D09B686846984704460028F4D1FCF7EE
:1089D80071FE144B9DF8012018601209124B53F8D0
:1089E800220028B1694622460223FDF7A7FB03E0CF
:1089F8000E4B1A6801321A609DF801200C4B1209BF
:108A080053F822100029D7D053F8223068469847E7
:108A1800D2E70A20FCF7BCFFCEE700BF48000020E1
:108A280034000020307F0020EC7E00202C7F0020C6
:108A38003C7F002010B588B00E4B0F491A688A4257
:108A48001C4613D00D4B694618684FF0FF320023BF
:108A5800FDF70EFD0128EFD1226868465368984754
:108A68000028E9D10A20FCF793FFF5E70A20FCF774
:108A78008FFFE1E74800002034000020387F002005
:108A88007FB5114D2C78ECB9202122463C20FDF70A
:108A980021FB0E4B0E4918600226962223460096AB
:108AA8000194029403940B48FCF7C4FC23460096F7
:108AB800019402940394084808499622FCF7BAFCEA
:108AC80001232B7004B070BD347F0020387F002054
:108AD8007CE001083D8A0008BD89000884E001089F
:108AE800014B1878704700BF347F002038B5094B18
:108AF80053F8202004461D4622B1074807495D2245
:108B080005F05AFB012020210022FDF7E3FA45F881
:108B1800240038BDEC7E00208CE00108A3E00108A9
:108B280070B50E4B53F8202005460C461E4622B958
:108B38000B480C496D2205F03FFB24B90A48094946
:108B48006E2205F039FB56F8250021464FF0FF321A
:108B58000023BDE87040FDF78BBC00BFEC7E002011
:108B6800BAE00108A3E001085D0A020808B5034B52
:108B78001868FDF783FDC0F13C0008BD387F002070
:108B88001028DCBF014B43F8201070473C7F0020C1
:108B980010B5044620B90B480B49C52205F00CFB5B
:108BA80023781E2B04D909480749C62205F004FB7F
:108BB800074B0022186821461346BDE81040FDF710
:108BC800BDBA00BF5D0A0208A3E00108C9E00108B8
:108BD800387F002008B5064B00211868FDF73AFADF
:108BE800044B1B681B6903B19847002008BD00BFF0
:108BF800387F00204800002008B5044B1B68DB685C
:108C08000BB1984708BD012008BD00BF48000020EF
:108C180038B5084C2368054613B11B6800209847EF
:108C28000DB1256001E0044B2360236801201B6817
:108C3800984738BD480000203400002038B50C4D56
:108C48004FF0FF330021044645F8203007F04CFB75
:108C5800084B282101FB0431002351F8232001325D
:108C680002D045F8243038BD01330A2BF5D138BD80
:108C7800488000207C7F00202DE9F74F8146FDF7D2
:108C880035FF2D4B1B78002B52D0C4B22B4B53F819
:108C98002430581C4CD00A2707FB0437284E294A91
:108CA80056F8275052F823B0DFF89C8000216B1C3F
:108CB8000BEBC50A46F82730D8F800000B464FF0F2
:108CC800FF32FDF7D5FBDAF80430991C08D05A1C9E
:108CD8000AD1204646F827300025FFF7AFFF1EE0EF
:108CE800002546F827501AE020461BF8351007F0F3
:108CF800FBFADAF80420002682B1042133460096F4
:108D08004846FDF7A7FDFCF7D5FC00960246012171
:108D180048463346FDF79EFD012500E01546002133
:108D2800D8F800000A460B46FDF708FA002DADD02A
:108D380003B0BDE8F08F00BF4480002048800020C9
:108D48007C7F0020E8E001087080002037B51D4BCB
:108D58001C781D46002C33D107F0CCFA23461A4A5A
:108D68004FF0FF319950194A0A2101FB03210022D3
:108D78004FF0FF3088500432282AF9D10433142BDD
:108D8800EDD10024124B0093124823464FF47A7118
:108D98000022FDF737FD104B43F824000134052C61
:108DA800F0D1032201200021FDF794F90B4A10604D
:108DB80020B100210A460B46FDF7C0F901232B70AC
:108DC80003B030BD45800020488000207C7F002013
:108DD800818C0008E0E101085C80002070800020A0
:108DE80010B5044B1C7807F0BBFA034B01221A702C
:108DF800204010BD4580002044800020F8B505467D
:108E08000024174B53F824308B4203D001340A2C2A
:108E1800F7D1F8BD134E00210B464FF0FF323068F2
:108E2800FDF726FB0A2202FB05420F4B00272846C6
:108E380043F82270FFF702FF3B46306839463A464E
:108E4800FDF77CF9094B53F82530A34206D1084BAE
:108E580053F82500BDE8F840FFF70EBFF8BD00BF86
:108E6800E8E00108708000207C7F00204880002016
:108E78005C8000204160C2607047000070B5054604
:108E88000024144B53F824308B4203D001340A2CAD
:108E9800F7D170BD104E00210B4630684FF0FF32FD
:108EA800FDF7E6FA0A2303FB05440C4B4FF0FF32AB
:108EB800284643F82420FFF7C1FE002130680B46FE
:108EC8000A46FDF73BF9064B53F82500BDE870400C
:108ED800FFF7D2BEE8E00108708000207C7F002008
:108EE8005C80002008B54FF05F0383F31188BFF35F
:108EF8006F8FBFF34F8F0649064805F0CDFA022061
:108F0800012107F0F1F90420012107F0EDF9FEE74E
:108F18002CE20108119300087047012070470000F7
:108F280008B5034B1B680BB11B68984708BD00BF09
:108F38007480002008B5034B1B680BB15B68984729
:108F480008BD00BF74800020014B1860704700BF47
:108F5800748000201FB5022300930023019302931D
:108F68000393044904484FF49672FCF763FA05B07A
:108F78005DF804FB3DE20108AD90000873B5284C8C
:108F88002578002D4AD10120FDF7A0F9254B264E62
:108F980018604FF0FF322B462946FDF769FA09F0B1
:108FA80099FC0CF09BFEFFF76BFD00F06BF91F4975
:108FB8001F48204D05F070FA1F491D4805F06CFA4E
:108FC8001E4B36781E491F481A681F4B09681B68D4
:108FD8000091002E18BF284601901C49144805F03E
:108FE8005BFA1B4B1B491B6800931B4B1048B3F9DA
:108FF80000300193194B1A68043B1B6805F04CFAC2
:1090080010F002FC01F050F80DF004FBFFF79EFE93
:1090180009F028FEFFF780FF0123237002B070BD1E
:1090280080800020E8C20020C3EB010853E2010859
:109038001193000844E2010876E201088402002046
:10904800800200204DE201087C0200209DE2010818
:10905800107AFF1FB7E20108227AFF1F187AFF1F54
:1090680038B5084B1D78FFF7BBFE044609F020FE13
:10907800204005EA000401F023F80440FFF74DFF03
:10908800204038BD8080002008B5054B00211868B5
:109098000A460B46FDF752F8BDE8084009F052BAF7
:1090A800E8C2002038B507F025F90121002007F0B3
:1090B8001BF9FFF763FF00F0A1F801F035F801F0A4
:1090C800B5FB0CF067FF0CF0BFFC0CF03BFFFFF7A3
:1090D800C7FF054610F046FC2840C5B200F0AAF8C4
:1090E800054001F0C9F8054001F0CCFB05400CF043
:1090F8006FFF05400CF0D2FC05400CF045FF054021
:109108001F4C09F009FA85B178B101252570FFF7E0
:10911800BBFF06200CF0C8FC04201A49FFF76EFEBE
:1091280028461949FFF76AFE1CE000232370FFF761
:1091380097FF88B104201449FFF760FE4FF4FA60E6
:10914800FCF726FC2378002BF4D01049104805F0D2
:10915800A3F9FFF799FF05E007F0CCF804200121F7
:1091680007F0C2F8FDF7DAFD0A490246084805F09B
:1091780093F900F0ADFF4FF0FF30FCF709FCFAE778
:109188007880002014E2010868E10108E5E201089E
:1091980011930008F9E2010810B50B4B1B781BB9B5
:1091A8000220FCF7F5FBF8E7084C00210B46206885
:1091B8004FF0FF32FDF75CF9002120680A460B46A4
:1091C800BDE81040FCF7BABF80800020E8C200204C
:1091D800014B1870704700BF8180002008B5FCF76C
:1091E80069FA054B1A68821A502A02D91860FEF7E4
:1091F80007FB30BF08BD00BF7C80002010B50C4CB9
:1092080023789BB908F0E4FE09F0F0FF0AF06CF847
:10921800FFF7FEFC00F0E6F80CF03AFB00F022FE47
:1092280000F012F901F056FA0123237010BD00BFB7
:109238008280002038B50B4B1D7809F09FFF04464B
:10924800FFF74EFC204005EA000400F0DBF804407C
:109258000CF02EFB044000F033F8044000F078F9DD
:10926800204038BD8280002010B5054C2046FFF70D
:109278008FFC01284FF000030CBF2370184610BD67
:10928800ECC2002038B50B4B1C781D468CB90A4A35
:1092980001201470547021460322FCF71BFF074A73
:1092A800106020B1214622462346FCF747FF0123E0
:1092B8002B7038BD88800020ECC2002084800020FC
:1092C800014B1878704700BF8880002037B50C4DD7
:1092D80004460021286801AAFDF78AF901280BD164
:1092E800084B1A781D2A03D8991801328C701A7005
:1092F800286801A9FDF76CF8204603B030BD00BF0F
:1093080084800020ECC2002070B5234B5968234BA1
:109318001B780546002B3CD0C1F3080119B1BDE804
:109328007040FFF7D3BF1E4C4FF0FF3220680B464A
:10933800FDF79EF80128264629D11A4A13781D2BD5
:10934800144603D81A440133957023700A2D02D0AD
:1093580023781D2B15D9FFF709FC012802D0FFF748
:1093680083FF0EE02278002399180029F7DD0E48C4
:10937800A1181844194400798870013B591DF3D18C
:10938800EDE7002130680A460B46FCF7D7FEE8B245
:1093980070BD184670BD00BF00ED00E08880002059
:1093A80084800020ECC2002058E3010838B54378D7
:1093B80013F0030305460FD0012B00D038BD044637
:1093C8001E2204F8022B0021204614F010F8204633
:1093D800034914F014F82846BDE83840FFF7D8BB15
:1093E8005DE3010810B5054C23782BB90F2004491B
:1093F800FFF7C6FB0123237010BD00BF8980002042
:10940800B5930008014B1878704700BF8980002089
:1094180030B50B4B19680B4B00221C6813468B4266
:1094280009DA0C255D436557002D02DB824205D021
:1094380001320133F3E74FF0FF3030BD184630BD3D
:10944800BC800020B48000202DE9FF47314F3C78D4
:10945800002C5BD1304B3149314D324A2B60CB1A4D
:1094680031499B104B431360304B92461C60984621
:10947800DAF800108C422EDA2D4BD8F800002A6852
:10948800C3F802000C2666439119925D9A714868E8
:10949800C8B113F0BCFF182804D92648264962220F
:1094A80004F08AFE2B681E44D6F80490484613F050
:1094B800AEFF49460246214813F090FF706813F04A
:1094C800A6FF411D00E005211D4804F0F3FF01340B
:1094D800C8F80000CCE71B482C68026800238B42C0
:1094E80007DA0C255D4301336557002DA8BF01320B
:1094F800F5E70023012402601349009401930293C5
:10950800039312489622FBF795FF3C7004B0BDE820
:10951800F08700BFB8800020CC1B02080423020893
:10952800B4800020BC800020ABAAAAAAAC8000208E
:109538008A80002070E3010892E3010891800020EE
:109548008C800020B0800020AAE3010875960008EE
:10955800014B1878704700BFB88000202DE9F84308
:1095680018B101280FD0BDE8F883374B374F384C76
:10957800D3F800C0396894F80390364E0546034680
:109588000246B84618E0324B20225A7006221A705A
:10959800314A98701268DA70304A10685860184674
:1095A8001AE0485D10F0800F01EB050707D0C007EF
:1095B80009D57E6801320C356245F2DB05E04B4582
:1095C8000ED00133F6E7234EF4E72023637000231F
:1095D800A370012323701E48BDE8F843FFF7D8BAEB
:1095E800202262700022A270E3703B78237130461B
:1095F80013F00DFF8146786813F009FF4844431DB6
:10960800DBB21E2B237004D915481649D62204F064
:10961800D3FD304613F0FBFE3146421C124813F0CE
:10962800DDFE304613F0F3FED8F800301D44064640
:109638006D68284613F0EBFE3444421C2946A01DF1
:1096480013F0CCFEC7E700BFBC800020B480002028
:109658008A800020880C0208B0800020AC8000209E
:10966800B0E3010892E301088F8000202DE9F04F54
:10967800022085B0FFF73AFA804C02202146FFF716
:109688004FFA6678A578C6F30106F3B2A0461BB96F
:109698002846FFF763FFEFE7012B30D12846FFF795
:1096A800B7FE002805DAFF23A3700223E5702371B3
:1096B80030E00C235843724B1B681A5C191802F0EF
:1096C8000302022A8B680CD0032A0FD0012A03D088
:1096D8001B78E370022310E01B88A4F803300323EF
:1096E8000BE01B68C4F80330052306E01A68C4F8C9
:1096F80003205A68C4F8072009232370A9E0022B25
:109708002DD12846FFF784FE002807DAFF23A3702F
:10971800E57026710323237020469BE00C235843F1
:10972800574B1B681A181B5C5906A5D403F0030392
:10973800022B916809D0032B0BD0012B15BFE378BE
:10974800B4F803300B700B8083E0D4F803300B605F
:109758007FE054F8032F6368C1E9002379E0002D06
:109768008AD12B4608EB0302927802B901350133FE
:109778001E2BF7D1012D7DDD4248434D13F047FEE6
:1097880008EB000704378246384613F040FE82444F
:1097980053464344CDF808A093F805903B4B1B680B
:1097A8000393374B1E684FF0000A039A92451CDA60
:1097B80096F800B01BF0800F04D01BF0010F0FD0FB
:1097C80075680EE070683946FBF766FD48B92B4BA3
:1097D8000193D91C2846FBF75FFD019B08B906E0F9
:1097E800294D0AF1010A0C36DFE702251DE0D945AB
:1097F8003ED109F0400202F0FF05002A36D1029A54
:10980800B16802F1040A09F003095344B9F1020FDF
:1098180003F1020221D0B9F1030F22D0B9F1010FEF
:1098280015BF9B785B880B700B80164813F0EFFD13
:109838000646384613F0EBFDB044404445711148E4
:1098480013F0E5FD0546384613F0E1FD2844051DF3
:1098580025700A48FFF79CF90EE7D3F802300B6031
:10986800E3E7D2E90023C1E90023DEE70D25DCE7C1
:109878001625DAE705B0BDE8F08F00BF8A80002022
:10988800B48000208D800020880C0208BC80002055
:109898002DE9F34100250C23184F6B43DA59824216
:1098A80004D00135082DF6D1022024E03B449C6801
:1098B80024B123680022A2601C46F9E70C2606FBA7
:1098C8000576706888B14FF0FF3803212246234699
:1098D800CDF80080FCF7BEFFCDF800807068052148
:1098E80022462346FCF7B6FF74600C235D434FF015
:1098F800FF337B51002002B0BDE8F081E0830020F7
:1099080013B500230C220B495A435458844204D0FF
:109918000133082BF6D102200AE00A444FF0FF3346
:1099280000935068002203211346FCF793FF0020A0
:1099380002B010BDE083002038B5124B124D1B78E1
:109948000BB900230DE000242859431C05D0FFF76C
:10995800D7FF0D4BE058FFF79BFF0C34602CF3D179
:10996800EFE74FF0FF32EA500C33602BF9D10023B8
:10997800064A1A440C330021B3F5407F9160F7D1B1
:1099880038BD00BF48840020E0830020C08000204C
:1099980008B5FDF7ABF8BDE808400146014800F0FE
:1099A800ADBB00BF259D00082DE9F74F00230C270C
:1099B8003E4A5F43BC58844204D00133082BF6D199
:1099C800022070E03A4BD3F800803A4B1B680193B1
:1099D800174400228A4228DABC6800262346DFF8AA
:1099E800E0A033B118791B6800091AF80000064492
:1099F800F5E7314810F8125005F00F0B4FEA420C0A
:109A08001AF80BA056441A2E00EB0C0982460EDCFD
:109A18001E462A4B4FF00C0B0BFB0633986840B1DF
:109A28000136402EF5D158463DE000203BE00720A6
:109A380039E099F80190B9F1FF0F1CD0019E8446D6
:109A4800C445BDDA96F900A0BAF1000F02DB48451B
:109A580004D001300CF1010C0C36F1E7BCF1000F19
:109A6800AEDBB06898603678187966F3030065F362
:109A7800071018710BE00CF1020050449860187937
:109A88002E0966F3030065F30710187102320020EF
:109A980018600CB9BB6004E0206808B10446FBE715
:109AA8002360013296E703B0BDE8F08FE083002021
:109AB800448400204C840020C4830020C0800020FF
:109AC80020E401082DE9F04F052085B0FFF70EF8D6
